:060000000A128A110C280F
:10000800FE00030EF4000A08F5000A128A110F28F0
:100018000A128A1172298B1A0B1D2328FA0A7A08E8
:10002800790603197B1C2128FA018312031321087E
:10003800023A031D2128A101A10A0B119E288B1940
:100048000B1C7528A5200A128A11C4200A128A11CD
:1000580003196F286830F300E430F200F20B3228FD
:10006800F30B322864006830F300E430F200F20B3E
:100078003B28F30B3B2864006830F300E430F200BF
:10008800F20B4428F30B442864006830F300E43092
:10009800F200F20B4D28F30B4D2864006830F30092
:1000A800E430F200F20B5628F30B5628640068304F
:1000B800F300E430F200F20B5F28F30B5F286400D2
:1000C800C4200A128A1103196F28A001A00A060881
:1000D800A4000F30A40506080B10A5200A128A11E7
:1000E8009E28831603138C1E9E2883128C1E9E281E
:1000F800981C80281812181618191A088C1A88289B
:10010800B3200A128A1182281A08F600413A031D00
:100118008F28A1019E287608503A031D9E280D308D
:10012800F300FB30F200F20B9728F30B97289C287A
:100138004830BC2075088A00740E8300FE0E7E0EBF
:100148000900F001F1010000F00A0319F10A133067
:10015800710288300319700203180800A728831257
:100168000313981CB9281812181618191A08080029
:10017800F000831203130C1EBD28700899000800B4
:100188008312031306080F39240608000A128A117D
:100198002E210A128A110A128A115B210A128A1167
:1001A8000B178B178312A001081464008312031322
:1001B800200BE328A001A101A10A0230880621032F
:1001C800031DD9280230A10096300A128A11832112
:1001D8000A128A11241CF2283030F32831300A120E
:1001E8008A117D210A128A112408A3000310A30C86
:1001F800231C00293030012931300A128A117D214F
:100208000A128A112408A3000310A30C0310A30CDC
:10021800231C10293030112931300A128A117D210E
:100228000A128A112408A3000310A30C0310A30CBC
:100238000310A30C231C272930300A128A117D21B0
:100248000A128A11D92831300A128A117D210A121C
:100258008A11D92885018601870188018901031738
:10026800870188017530831603138F0083120317E3
:10027800173087138813850087308316031381008E
:100288000317890188010B118B16031385010F30A1
:100298008600C4308700880189010F3096008312D8
:1002A80006080B108B15A4000F30A4050800831650
:1002B8000717871718110317333087150313990089
:1002C8001812831298171816831698161813831283
:1002D8001813981183168C160C120800FB01F701ED
:1002E800F801F901FA01A001A10183010A128A119A
:1002F800CA28A2000C1E7E29220899000800A20024
:08030800FA01F9007B14080062
:02400E002CE3A1
:00000001FF
