:060000000A128A110C280F
:10000800FE00030EF4000A08F5000A128A110F28F0
:100018000A128A1182298B1A0B1D2328FA0A7A08D8
:10002800790603197B1C2128FA018312031325087A
:10003800023A031D2128A501A50A0B119E288B1938
:100048000B1C7528A5200A128A11C4200A128A11CD
:1000580003196F286830F300E430F200F20B3228FD
:10006800F30B322864006830F300E430F200F20B3E
:100078003B28F30B3B2864006830F300E430F200BF
:10008800F20B4428F30B442864006830F300E43092
:10009800F200F20B4D28F30B4D2864006830F30092
:1000A800E430F200F20B5628F30B5628640068304F
:1000B800F300E430F200F20B5F28F30B5F286400D2
:1000C800C4200A128A1103196F28A401A40A060879
:1000D800A8000F30A80506080B10A5200A128A11DF
:1000E8009E28831603138C1E9E2883128C1E9E281E
:1000F800981C80281812181618191A088C1A88289B
:10010800B3200A128A1182281A08F600413A031D00
:100118008F28A5019E287608503A031D9E280D3089
:10012800F300FB30F200F20B9728F30B97289C287A
:100138004830BC2075088A00740E8300FE0E7E0EBF
:100148000900F001F1010000F00A0319F10A133067
:10015800710288300319700203180800A728831257
:100168000313981CB9281812181618191A08080029
:10017800F000831203130C1EBD28700899000800B4
:100188008312031306080F39280608000A128A1179
:100198003E210A128A110A128A116B210A128A1147
:1001A8000B178B178312A401003006180130A0002A
:1001B800003086180130A100003006190130A20075
:1001C800003086190130A300081464008312031359
:1001D800240BF328A401A501A50A023088062503EB
:1001E800031DE9280230A50096300A128A119721CA
:1001F8000A128A11281C02293130032930300A12C8
:100208008A1191210A128A112808A7000310A70C45
:10021800271C10293130112930300A128A119121F6
:100228000A128A112808A7000310A70C0310A70CAC
:10023800271C20293130212930300A128A119121B6
:100248000A128A112808A7000310A70C0310A70C8C
:100258000310A70C271C372931300A128A11912163
:100268000A128A11E92830300A128A1191210A12D9
:100278008A11E92885018601870188018901031708
:10028800870188017530831603138F0083120317C3
:10029800173087138813850087308316031381006E
:1002A8000317890188010B118B16031385010F3081
:1002B8008600C4308700880189010F3096008312B8
:1002C80006080B108B15A8000F30A8050800831628
:1002D8000717871718110317333087150313990069
:1002E8001812831298171816831698161813831263
:1002F8001813981183168C160C120800FB01F701CD
:10030800F801F901FA01A001A101A201A301A401C8
:10031800A50183010A128A11CA28A6000C1E922977
:10032800260899000800A600FA01F9007B140800C5
:02400E002CE3A1
:00000001FF
